{
  "contractName": "CharityHandler",
  "abi": [
    {
      "constant": true,
      "inputs": [
        {
          "internalType": "uint256",
          "name": "",
          "type": "uint256"
        }
      ],
      "name": "allCharities",
      "outputs": [
        {
          "internalType": "contract Charity",
          "name": "",
          "type": "address"
        }
      ],
      "payable": false,
      "stateMutability": "view",
      "type": "function"
    },
    {
      "constant": true,
      "inputs": [],
      "name": "name",
      "outputs": [
        {
          "internalType": "string",
          "name": "",
          "type": "string"
        }
      ],
      "payable": false,
      "stateMutability": "view",
      "type": "function"
    },
    {
      "constant": true,
      "inputs": [
        {
          "internalType": "address",
          "name": "",
          "type": "address"
        },
        {
          "internalType": "uint256",
          "name": "",
          "type": "uint256"
        }
      ],
      "name": "ownerCharities",
      "outputs": [
        {
          "internalType": "address",
          "name": "",
          "type": "address"
        }
      ],
      "payable": false,
      "stateMutability": "view",
      "type": "function"
    },
    {
      "constant": false,
      "inputs": [
        {
          "internalType": "string",
          "name": "cname",
          "type": "string"
        }
      ],
      "name": "createCharity",
      "outputs": [],
      "payable": false,
      "stateMutability": "nonpayable",
      "type": "function"
    },
    {
      "constant": true,
      "inputs": [],
      "name": "getAllCharityAddress",
      "outputs": [
        {
          "internalType": "contract Charity[]",
          "name": "",
          "type": "address[]"
        }
      ],
      "payable": false,
      "stateMutability": "view",
      "type": "function"
    },
    {
      "constant": true,
      "inputs": [],
      "name": "getOwnedCharities",
      "outputs": [
        {
          "internalType": "address[]",
          "name": "",
          "type": "address[]"
        }
      ],
      "payable": false,
      "stateMutability": "view",
      "type": "function"
    }
  ],
  "bytecode": "0x60806040526040518060400160405280600f81526020017f436861726974792048616e646c657200000000000000000000000000000000008152506000908051906020019061004f929190610062565b5034801561005c57600080fd5b50610107565b828054600181600116156101000203166002900490600052602060002090601f016020900481019282601f106100a357805160ff19168380011785556100d1565b828001600101855582156100d1579182015b828111156100d05782518255916020019190600101906100b5565b5b5090506100de91906100e2565b5090565b61010491905b808211156101005760008160009055506001016100e8565b5090565b90565b61205d806101166000396000f3fe608060405234801561001057600080fd5b50600436106100625760003560e01c806306fdde031461006757806342ff5c1f146100ea57806364be5548146101785780639d668cf914610233578063c53dcd62146102a1578063ea2df8bc14610300575b600080fd5b61006f61035f565b6040518080602001828103825283818151815260200191508051906020019080838360005b838110156100af578082015181840152602081019050610094565b50505050905090810190601f1680156100dc5780820380516001836020036101000a031916815260200191505b509250505060405180910390f35b6101366004803603604081101561010057600080fd5b81019080803573ffffffffffffffffffffffffffffffffffffffff169060200190929190803590602001909291905050506103fd565b604051808273ffffffffffffffffffffffffffffffffffffffff1673ffffffffffffffffffffffffffffffffffffffff16815260200191505060405180910390f35b6102316004803603602081101561018e57600080fd5b81019080803590602001906401000000008111156101ab57600080fd5b8201836020820111156101bd57600080fd5b803590602001918460018302840111640100000000831117156101df57600080fd5b91908080601f016020809104026020016040519081016040528093929190818152602001838380828437600081840152601f19601f820116905080830192505050505050509192919290505050610448565b005b61025f6004803603602081101561024957600080fd5b8101908080359060200190929190505050610626565b604051808273ffffffffffffffffffffffffffffffffffffffff1673ffffffffffffffffffffffffffffffffffffffff16815260200191505060405180910390f35b6102a9610662565b6040518080602001828103825283818151815260200191508051906020019060200280838360005b838110156102ec5780820151818401526020810190506102d1565b505050509050019250505060405180910390f35b61030861072d565b6040518080602001828103825283818151815260200191508051906020019060200280838360005b8381101561034b578082015181840152602081019050610330565b505050509050019250505060405180910390f35b60008054600181600116156101000203166002900480601f0160208091040260200160405190810160405280929190818152602001828054600181600116156101000203166002900480156103f55780601f106103ca576101008083540402835291602001916103f5565b820191906000526020600020905b8154815290600101906020018083116103d857829003601f168201915b505050505081565b6001602052816000526040600020818154811061041657fe5b906000526020600020016000915091509054906101000a900473ffffffffffffffffffffffffffffffffffffffff1681565b60008133604051610458906107bb565b80806020018373ffffffffffffffffffffffffffffffffffffffff1673ffffffffffffffffffffffffffffffffffffffff168152602001828103825284818151815260200191508051906020019080838360005b838110156104c75780820151818401526020810190506104ac565b50505050905090810190601f1680156104f45780820380516001836020036101000a031916815260200191505b509350505050604051809103906000f080158015610516573d6000803e3d6000fd5b50905060028190806001815401808255809150509060018203906000526020600020016000909192909190916101000a81548173ffffffffffffffffffffffffffffffffffffffff021916908373ffffffffffffffffffffffffffffffffffffffff16021790555050600160003373ffffffffffffffffffffffffffffffffffffffff1673ffffffffffffffffffffffffffffffffffffffff1681526020019081526020016000208190806001815401808255809150509060018203906000526020600020016000909192909190916101000a81548173ffffffffffffffffffffffffffffffffffffffff021916908373ffffffffffffffffffffffffffffffffffffffff160217905550505050565b6002818154811061063357fe5b906000526020600020016000915054906101000a900473ffffffffffffffffffffffffffffffffffffffff1681565b6060600160003373ffffffffffffffffffffffffffffffffffffffff1673ffffffffffffffffffffffffffffffffffffffff16815260200190815260200160002080548060200260200160405190810160405280929190818152602001828054801561072357602002820191906000526020600020905b8160009054906101000a900473ffffffffffffffffffffffffffffffffffffffff1673ffffffffffffffffffffffffffffffffffffffff16815260200190600101908083116106d9575b5050505050905090565b606060028054806020026020016040519081016040528092919081815260200182805480156107b157602002820191906000526020600020905b8160009054906101000a900473ffffffffffffffffffffffffffffffffffffffff1673ffffffffffffffffffffffffffffffffffffffff1681526020019060010190808311610767575b5050505050905090565b611860806107c98339019056fe60806040523480156200001157600080fd5b506040516200186038038062001860833981810160405260408110156200003757600080fd5b81019080805160405193929190846401000000008211156200005857600080fd5b838201915060208201858111156200006f57600080fd5b82518660018202830111640100000000821117156200008d57600080fd5b8083526020830192505050908051906020019080838360005b83811015620000c3578082015181840152602081019050620000a6565b50505050905090810190601f168015620000f15780820380516001836020036101000a031916815260200191505b506040526020018051906020019092919050505080600260006101000a81548173ffffffffffffffffffffffffffffffffffffffff021916908373ffffffffffffffffffffffffffffffffffffffff16021790555081600090805190602001906200015e92919062000167565b50505062000216565b828054600181600116156101000203166002900490600052602060002090601f016020900481019282601f10620001aa57805160ff1916838001178555620001db565b82800160010185558215620001db579182015b82811115620001da578251825591602001919060010190620001bd565b5b509050620001ea9190620001ee565b5090565b6200021391905b808211156200020f576000816000905550600101620001f5565b5090565b90565b61163a80620002266000396000f3fe6080604052600436106100dd5760003560e01c80636ecc75af1161007f578063ae677d8c11610059578063ae677d8c14610608578063b9d6586a1461066d578063cbb5fb4c1461069b578063f2fde38b146107df576100dd565b80636ecc75af146103dd5780637284e416146104345780638afe2a18146104c4576100dd565b80633a91bcbb116100bb5780633a91bcbb1461022d5780633afce5ef146102585780634daf19d9146102e8578063692f60be1461034d576100dd565b806306fdde03146100e257806315173cb514610172578063290b027614610202575b600080fd5b3480156100ee57600080fd5b506100f7610830565b6040518080602001828103825283818151815260200191508051906020019080838360005b8381101561013757808201518184015260208101905061011c565b50505050905090810190601f1680156101645780820380516001836020036101000a031916815260200191505b509250505060405180910390f35b34801561017e57600080fd5b506101ab6004803603602081101561019557600080fd5b81019080803590602001909291905050506108ce565b604051808581526020018481526020018381526020018273ffffffffffffffffffffffffffffffffffffffff1673ffffffffffffffffffffffffffffffffffffffff16815260200194505050505060405180910390f35b34801561020e57600080fd5b5061021761093a565b6040518082815260200191505060405180910390f35b34801561023957600080fd5b50610242610947565b6040518082815260200191505060405180910390f35b34801561026457600080fd5b506102916004803603602081101561027b57600080fd5b8101908080359060200190929190505050610954565b604051808581526020018481526020018381526020018273ffffffffffffffffffffffffffffffffffffffff1673ffffffffffffffffffffffffffffffffffffffff16815260200194505050505060405180910390f35b3480156102f457600080fd5b5061034b6004803603606081101561030b57600080fd5b810190808035906020019092919080359060200190929190803573ffffffffffffffffffffffffffffffffffffffff1690602001909291905050506109b1565b005b34801561035957600080fd5b506103866004803603602081101561037057600080fd5b8101908080359060200190929190505050610b34565b604051808581526020018481526020018381526020018273ffffffffffffffffffffffffffffffffffffffff1673ffffffffffffffffffffffffffffffffffffffff16815260200194505050505060405180910390f35b3480156103e957600080fd5b506103f2610b91565b604051808273ffffffffffffffffffffffffffffffffffffffff1673ffffffffffffffffffffffffffffffffffffffff16815260200191505060405180910390f35b34801561044057600080fd5b50610449610bb7565b6040518080602001828103825283818151815260200191508051906020019080838360005b8381101561048957808201518184015260208101905061046e565b50505050905090810190601f1680156104b65780820380516001836020036101000a031916815260200191505b509250505060405180910390f35b3480156104d057600080fd5b506104d9610c55565b6040518080602001806020018060200180602001858103855289818151815260200191508051906020019060200280838360005b8381101561052857808201518184015260208101905061050d565b50505050905001858103845288818151815260200191508051906020019060200280838360005b8381101561056a57808201518184015260208101905061054f565b50505050905001858103835287818151815260200191508051906020019060200280838360005b838110156105ac578082015181840152602081019050610591565b50505050905001858103825286818151815260200191508051906020019060200280838360005b838110156105ee5780820151818401526020810190506105d3565b505050509050019850505050505050505060405180910390f35b34801561061457600080fd5b506106576004803603602081101561062b57600080fd5b81019080803573ffffffffffffffffffffffffffffffffffffffff169060200190929190505050610e58565b6040518082815260200191505060405180910390f35b6106996004803603602081101561068357600080fd5b8101908080359060200190929190505050610e70565b005b3480156106a757600080fd5b506106b06111d5565b6040518080602001806020018060200180602001858103855289818151815260200191508051906020019060200280838360005b838110156106ff5780820151818401526020810190506106e4565b50505050905001858103845288818151815260200191508051906020019060200280838360005b83811015610741578082015181840152602081019050610726565b50505050905001858103835287818151815260200191508051906020019060200280838360005b83811015610783578082015181840152602081019050610768565b50505050905001858103825286818151815260200191508051906020019060200280838360005b838110156107c55780820151818401526020810190506107aa565b505050509050019850505050505050505060405180910390f35b3480156107eb57600080fd5b5061082e6004803603602081101561080257600080fd5b81019080803573ffffffffffffffffffffffffffffffffffffffff1690602001909291905050506113d8565b005b60008054600181600116156101000203166002900480601f0160208091040260200160405190810160405280929190818152602001828054600181600116156101000203166002900480156108c65780601f1061089b576101008083540402835291602001916108c6565b820191906000526020600020905b8154815290600101906020018083116108a957829003601f168201915b505050505081565b6000806000806000600486815481106108e357fe5b906000526020600020906004020190508060000154816001015482600201548360030160009054906101000a900473ffffffffffffffffffffffffffffffffffffffff168090509450945094509450509193509193565b6000600380549050905090565b6000600480549050905090565b6003818154811061096157fe5b90600052602060002090600402016000915090508060000154908060010154908060020154908060030160009054906101000a900473ffffffffffffffffffffffffffffffffffffffff16905084565b600260009054906101000a900473ffffffffffffffffffffffffffffffffffffffff1673ffffffffffffffffffffffffffffffffffffffff163373ffffffffffffffffffffffffffffffffffffffff1614610a57576040517f08c379a00000000000000000000000000000000000000000000000000000000081526004018080602001828103825260218152602001806115bd6021913960400191505060405180910390fd5b610a5f6114c2565b60405180608001604052808581526020018481526020018481526020018373ffffffffffffffffffffffffffffffffffffffff1681525090506004819080600181540180825580915050906001820390600052602060002090600402016000909192909190915060008201518160000155602082015181600101556040820151816002015560608201518160030160006101000a81548173ffffffffffffffffffffffffffffffffffffffff021916908373ffffffffffffffffffffffffffffffffffffffff16021790555050505050505050565b60048181548110610b4157fe5b90600052602060002090600402016000915090508060000154908060010154908060020154908060030160009054906101000a900473ffffffffffffffffffffffffffffffffffffffff16905084565b600260009054906101000a900473ffffffffffffffffffffffffffffffffffffffff1681565b60018054600181600116156101000203166002900480601f016020809104026020016040519081016040528092919081815260200182805460018160011615610100020316600290048015610c4d5780601f10610c2257610100808354040283529160200191610c4d565b820191906000526020600020905b815481529060010190602001808311610c3057829003601f168201915b505050505081565b6060806060806060600480549050604051908082528060200260200182016040528015610c915781602001602082028038833980820191505090505b5090506060600480549050604051908082528060200260200182016040528015610cca5781602001602082028038833980820191505090505b5090506060600480549050604051908082528060200260200182016040528015610d035781602001602082028038833980820191505090505b5090506060600480549050604051908082528060200260200182016040528015610d3c5781602001602082028038833980820191505090505b50905060008090505b600480549050811015610e4157600060048281548110610d6157fe5b906000526020600020906004020190508060000154868381518110610d8257fe5b6020026020010181815250508060010154858381518110610d9f57fe5b6020026020010181815250508060020154848381518110610dbc57fe5b6020026020010181815250508060030160009054906101000a900473ffffffffffffffffffffffffffffffffffffffff16838381518110610df957fe5b602002602001019073ffffffffffffffffffffffffffffffffffffffff16908173ffffffffffffffffffffffffffffffffffffffff1681525050508080600101915050610d45565b508383838397509750975097505050505090919293565b60056020528060005260406000206000915090505481565b6004805490508110610ecd576040517f08c379a00000000000000000000000000000000000000000000000000000000081526004018080602001828103825260298152602001806115946029913960400191505060405180910390fd5b600060048281548110610edc57fe5b906000526020600020906004020190508060020154341115610f49576040517f08c379a00000000000000000000000000000000000000000000000000000000081526004018080602001828103825260288152602001806115de6028913960400191505060405180910390fd5b34816002016000828254039250508190555034600560003373ffffffffffffffffffffffffffffffffffffffff1673ffffffffffffffffffffffffffffffffffffffff168152602001908152602001600020600082825401925050819055506000816002015414156111d1578060030160009054906101000a900473ffffffffffffffffffffffffffffffffffffffff1673ffffffffffffffffffffffffffffffffffffffff166108fc82600101549081150290604051600060405180830381858888f19350505050158015611023573d6000803e3d6000fd5b5060036004838154811061103357fe5b9060005260206000209060040201908060018154018082558091505090600182039060005260206000209060040201600090919290919091506000820154816000015560018201548160010155600282015481600201556003820160009054906101000a900473ffffffffffffffffffffffffffffffffffffffff168160030160006101000a81548173ffffffffffffffffffffffffffffffffffffffff021916908373ffffffffffffffffffffffffffffffffffffffff16021790555050505060046001600480549050038154811061110957fe5b90600052602060002090600402016004838154811061112457fe5b90600052602060002090600402016000820154816000015560018201548160010155600282015481600201556003820160009054906101000a900473ffffffffffffffffffffffffffffffffffffffff168160030160006101000a81548173ffffffffffffffffffffffffffffffffffffffff021916908373ffffffffffffffffffffffffffffffffffffffff16021790555090505060048054809190600190036111cf9190611503565b505b5050565b60608060608060606003805490506040519080825280602002602001820160405280156112115781602001602082028038833980820191505090505b509050606060038054905060405190808252806020026020018201604052801561124a5781602001602082028038833980820191505090505b50905060606003805490506040519080825280602002602001820160405280156112835781602001602082028038833980820191505090505b50905060606003805490506040519080825280602002602001820160405280156112bc5781602001602082028038833980820191505090505b50905060008090505b6003805490508110156113c1576000600382815481106112e157fe5b90600052602060002090600402019050806000015486838151811061130257fe5b602002602001018181525050806001015485838151811061131f57fe5b602002602001018181525050806002015484838151811061133c57fe5b6020026020010181815250508060030160009054906101000a900473ffffffffffffffffffffffffffffffffffffffff1683838151811061137957fe5b602002602001019073ffffffffffffffffffffffffffffffffffffffff16908173ffffffffffffffffffffffffffffffffffffffff16815250505080806001019150506112c5565b508383838397509750975097505050505090919293565b600260009054906101000a900473ffffffffffffffffffffffffffffffffffffffff1673ffffffffffffffffffffffffffffffffffffffff163373ffffffffffffffffffffffffffffffffffffffff161461147e576040517f08c379a00000000000000000000000000000000000000000000000000000000081526004018080602001828103825260218152602001806115bd6021913960400191505060405180910390fd5b80600260006101000a81548173ffffffffffffffffffffffffffffffffffffffff021916908373ffffffffffffffffffffffffffffffffffffffff16021790555050565b6040518060800160405280600080191681526020016000815260200160008152602001600073ffffffffffffffffffffffffffffffffffffffff1681525090565b8154818355818111156115305760040281600402836000526020600020918201910161152f9190611535565b5b505050565b61159091905b8082111561158c57600080820160009055600182016000905560028201600090556003820160006101000a81549073ffffffffffffffffffffffffffffffffffffffff02191690555060040161153b565b5090565b9056fe5265717565737420646f6573206e6f742065786973742061742073706563696669656420696e64657843616e206f6e6c7920626520646f6e652062792063686172697479206f776e65725472616e7366657220616d6f756e7420657863636565647320726571756972656420616d6f756e74a265627a7a723158201a4362bfbcec6a604b8984d6cb3ee35822873e065c007bf7b004f5ad30ea198864736f6c63430005100032a265627a7a723158208a2960565a4d0c5eca4424465fed2c17b2249e21d74c520c3fdd770755c7b64f64736f6c63430005100032",
  "source": "pragma solidity ^0.5.0;\r\nimport './Charity.sol';\r\n\r\ncontract CharityHandler{\r\n    string public name = 'Charity Handler';\r\n\r\n    //mapping of owner addresses to charity contract addresses\r\n    mapping(address => address[]) public ownerCharities;\r\n\r\n    //array of all charity contract addresses\r\n    Charity[] public allCharities;\r\n    function createCharity(string memory cname) public {\r\n        Charity c = new Charity(cname, msg.sender);\r\n        allCharities.push(c);\r\n        ownerCharities[msg.sender].push(address(c));\r\n    }\r\n    function getAllCharityAddress() public view returns(Charity[] memory){\r\n        return allCharities;\r\n    }\r\n    function getOwnedCharities() public view returns(address[] memory){\r\n        return ownerCharities[msg.sender];\r\n    }\r\n}",
  "sourcePath": "D:/projects/DCharity/src/contracts/CharityHandler.sol",
  "compiler": {
    "name": "solc",
    "version": "0.5.16+commit.9c3226ce.Emscripten.clang"
  },
  "schemaVersion": "3.2.2",
  "updatedAt": "2020-07-21T21:11:03.728Z",
  "networkType": "ethereum",
  "devdoc": {
    "methods": {}
  },
  "userdoc": {
    "methods": {}
  }
}